:020000042000DA
:1010000000000220C92E00203D3300204B33002079
:1010100051330020573300205D33002000000000D2
:10102000000000000000000000000000633300200A
:1010300071330020000000007F3300208D3300203A
:10104000192F0020192F0020192F0020192F002000
:10105000192F0020192F0020192F0020192F0020F0
:10106000192F0020192F0020192F0020192F0020E0
:10107000192F0020192F0020192F0020192F0020D0
:10108000192F0020192F0020192F0020192F0020C0
:10109000192F0020192F0020192F0020192F0020B0
:1010A000192F0020192F0020192F0020192F0020A0
:1010B000192F0020192F0020192F0020192F002090
:0400000520002EC9E0
:00000001FF
