:020000040800F2
:1000000000000220510D0008A5080008AB080008F8
:10001000B1080008B7080008BD080008000000008B
:10002000000000000000000000000000C3080008FD
:10003000D108000800000000DF080008ED080008F3
:10004000A50D0008A50D0008A50D0008A50D0008C8
:10005000A50D0008A50D0008A50D0008A50D0008B8
:10006000A50D0008A50D0008A50D0008A50D0008A8
:10007000A50D0008A50D0008A50D0008A50D000898
:10008000A50D0008A50D0008A50D0008A50D000888
:10009000A50D0008A50D0008A50D0008A50D000878
:1000A000A50D0008A50D0008A50D0008A50D000868
:1000B000A50D0008A50D0008A50D0008A50D000858
:1000C000A50D0008A50D0008A50D0008A50D000848
:1000D000A50D0008A50D0008A50D0008A50D000838
:1000E000A50D0008A50D0008A50D0008A50D000828
:1000F000A50D0008A50D0008A50D0008A50D000818
:10010000A50D0008A50D0008A50D0008A50D000807
:10011000A50D0008A50D0008A50D0008A50D0008F7
:10012000A50D0008A50D0008A50D0008A50D0008E7
:10013000A50D00080000000000000000A50D00084B
:10014000A50D0008A50D0008A50D0008A50D0008C7
:10015000A50D0008A50D0008A50D0008A50D0008B7
:10016000A50D0008A50D0008A50D0008A50D0008A7
:10017000A50D0008A50D0008A50D00080000000051
:1001800000000000A50D00080000000000000000B5
:10019000A50D00080000000000000000A50D0008EB
:1001A000000000000000000000000000A50D000895
:1001B000A50D0008A50D0008A50D0008A50D000857
:0401C000A50D000881
:1001C40010B5054C237833B9044B13B10448AFF38D
:1001D40000800123237010BD1800002000000000DF
:1001E4000028000808B5034B1BB103490348AFF3CB
:1001F400008008BD000000001C000020002800084A
:1002040053B94AB9002908BF00281CBF4FF0FF3179
:100214004FF0FF3000F070B9ADF1080C6DE904CE79
:1002240000F006F8DDF804E0DDE9022304B07047CD
:100234002DE9F047089E0D4604460F46002B4AD18F
:100244008A42944665D9B2FA82F343B102FA03FCB6
:10025400C3F120029F4020FA02F217439C404FEA68
:100264001C4E1FFA8CF5B7FBFEF1220C0EFB117726
:1002740042EA074201FB05F090420AD91CEB020254
:1002840001F1FF3780F01C81904240F2198102395C
:100294006244121AA4B2B2FBFEF00EFB102244EA2E
:1002A400024400FB05F5A5420AD91CEB040400F145
:1002B400FF3280F00781A54240F204816444023891
:1002C40040EA0140641B00211EB1DC400023C6E962
:1002D4000043BDE8F0878B4208D9002E00F0ED8082
:1002E4000021C6E900050846BDE8F087B3FA83F1AA
:1002F400002949D1AB4202D3824200F2F880841A29
:1003040065EB030201201746002EE2D0C6E9004740
:10031400DFE702B9FFDEB2FA82F3002B40F09080EF
:100324008A1A4FEA1C471FFA8CFE0121B2FBF7F52B
:1003340007FB1520220C42EA00420EFB05F0904216
:1003440008D91CEB020205F1FF3802D2904200F2F8
:10035400CB804546121AA4B2B2FBF7F007FB102279
:1003640044EA02440EFB00FEA64508D91CEB040433
:1003740000F1FF3202D2A64500F2BB801046A4EB86
:100384000E0440EA05409FE7C1F120078B4022FAA2
:1003940007FC4CEA030C05FA01F420FA07F3FD40CC
:1003A4004FEA1C492343B5FBF9F81FFA8CFE09FBFD
:1003B40018551C0C44EA054408FB0EF5A54202FA44
:1003C40001F200FA01F00BD91CEB040408F1FF3A26
:1003D40080F08880A54240F28580A8F10208644438
:1003E400641B9DB2B4FBF9F309FB134445EA0444CE
:1003F40003FB0EFEA64508D91CEB040403F1FF35EC
:100404006CD2A6456AD9023B644443EA0843A3FB81
:100414000295A4EB0E04AC42C846AE4656D353D064
:1004240056B1B0EB080264EB0E0404FA07F7CA40B5
:10043400CC401743C6E9007418460021BDE8F08794
:10044400C3F1200102FA03FC20FA01F225FA01F1BA
:100454009D402A434FEA1C471FFA8CFEB1FBF7F07C
:1004640007FB1015110C41EA054100FB0EF58D4206
:1004740004FA03F408D91CEB010100F1FF382FD270
:100484008D422DD902386144491B92B2B1FBF7F574
:1004940007FB151142EA014205FB0EF1914208D90E
:1004A4001CEB020205F1FF3816D2914214D9023D29
:1004B4006244521A45EA004138E73146304608E7BB
:1004C4003946E6E61046FBE64845A9D2B9EB0208F0
:1004D40065EB0C0E013BA3E74546EAE72B4694E7A0
:1004E4004046D1E7D0467BE7023D624432E7084606
:1004F4000AE76444023842E7704700BF80B58AB017
:1005040000AF0346FB71FB79002B0ED100233B6146
:100514001F4B1B6B1E4A43F0020313631C4B1B6BE4
:1005240003F002033B613B690DE00023FB60184BC1
:100534001B6B174A43F002031363154B1B6B03F049
:100544000203FB60FB68FB79124A32F813307B61CB
:100554000123BB610023FB6102233B62FB790E4A4A
:1005640052F8233007F114021146184600F096FDA4
:10057400FB79094A52F82300FB79064A32F8133012
:100584000022194600F036FF00BF2837BD4680BD63
:1005940000380240182800080000002080B582B00E
:1005A40000AF0346FB71FB79074A52F82300FB793D
:1005B400064A32F813300122194600F01BFF00BF2F
:1005C4000837BD4680BD00BF000000201828000881
:1005D40080B582B000AF0346FB71FB79074A52F83D
:1005E4002300FB79064A32F813300022194600F042
:1005F40001FF00BF0837BD4680BD00BF00000020DA
:100604001828000880B500AF00F0CCFB00F056F8C5
:100614000020FFF773FF0120FFF770FF0220FFF7B0
:100624006DFF244B244A1A60224B4FF461425A60F6
:10063400204B00229A601F4B0022DA601D4B0022DF
:100644001A611C4B00229A611A4B0C225A61194BF5
:100654000022DA61174801F099FC0346002B00D010
:10066400FEE70220FFF79AFFFA2000F00DFC0020BD
:10067400FFF794FFFA2000F007FC0120FFF78EFF3C
:10068400FA2000F001FC0220FFF788FFFA2000F0B6
:10069400FBFB0020FFF79CFFFA2000F0F5FB012094
:1006A400FFF796FFFA2000F0EFFB0220FFF790FF20
:1006B400DAE700BF340000200048004080B594B061
:1006C40000AF07F11C0334220021184602F06AF837
:1006D40007F1080300221A605A609A60DA601A610E
:1006E40000237B602C4B1B6C2B4A43F08053136418
:1006F400294B1B6C03F080537B607B6800233B60B9
:10070400264B1B68254A43F440431360234B1B6864
:1007140003F440433B603B680223FB610123BB625B
:100724001023FB6202237B630023BB630823FB6368
:10073400B4233B6402237B640223BB640223FB6473
:1007440007F11C03184601F083F90346002B01D07E
:1007540000F026F800F068FE0346002B01D000F0FC
:100764001FF80F23BB600223FB6000233B614FF49F
:10077400A0537B614FF48053BB6107F1080305214B
:10078400184600F0A1FE0346002B01D000F008F843
:1007940000BF5037BD4680BD0038024000700040A5
:1007A40080B400AF72B600BFFEE7000080B58AB027
:1007B40000AF786000233B61234B1B6B224A43F05C
:1007C40008031363204B1B6B03F008033B613B6975
:1007D4000023FB601C4B1B6B1B4A43F00803136391
:1007E400194B1B6B03F00803FB60FB680023BB6021
:1007F400154B1B6C144A43F480231364124B1B6C7B
:1008040003F48023BB60BB684FF480737B610223D5
:10081400BB610123FB6103233B6207237B6207F176
:1008240014031946094800F039FC4FF400737B6146
:1008340007237B6207F114031946044800F02EFCD9
:1008440000BF2837BD4680BD00380240000C02407E
:1008540080B483B000AF00237B60104B5B6C0F4A05
:1008640043F4804353640D4B5B6C03F480437B601F
:100874007B6800233B60094B1B6C084A43F08053A0
:100884001364064B1B6C03F080533B603B6800BF52
:100894000C37BD465DF8047B704700BF003802404A
:1008A40080B400AFFEE780B400AFFEE780B400AFD1
:1008B400FEE780B400AFFEE780B400AFFEE780B48B
:1008C40000AF00BFBD465DF8047B704780B400AF45
:1008D40000BFBD465DF8047B704780B400AF00BF25
:1008E400BD465DF8047B704780B500AF00F0ACFAFC
:1008F40000BF80BD80B400AF064BD3F88830054AF2
:1009040043F47003C2F8883000BFBD465DF8047B31
:10091400704700BF00ED00E00023038080F86630DC
:10092400704700BF0378632B84BF643B0370437834
:10093400632B84BF643B437090F86630642B84BFA0
:10094400642380F866307047437800EB030C5A1C2C
:100954008CF8021090F8663042700133DBB2642BDD
:1009640080F8663002D1037801330370FFF7DABFF1
:1009740003781944C9B2642907D9A1F16403DBB22D
:10098400642B86BF3831C9B2194608448078704751
:100994002DE9F84390F86680A8F10907002F6BDD74
:1009A400002406468946254604E00134E4B2BC42EC
:1009B400254661DA21463046FFF7DAFF9042F4D14A
:1009C40009354545F1DA04F10905EDB22946304609
:1009D400FFF7CEFF4528E8D1611C89F80020C9B291
:1009E4003046FFF7C5FFA11C89F80100C9B23046A3
:1009F400FFF7BEFFE11C89F80200C9B23046FFF7D9
:100A0400B7FF211D89F80300C9B23046FFF7B0FFD4
:100A1400611D89F80400C9B23046FFF7A9FFA11D82
:100A240089F80500C9B23046FFF7A2FFE11D89F835
:100A34000600C9B23046FFF79BFF04F1080189F8AC
:100A44000700C9B23046FFF793FF294689F808002A
:100A54003046FFF78DFF89F80900327896F8663042
:100A64000A320A3B1B1B22443046327086F8663039
:100A7400FFF758FF012000E00020BDE8F88300BF25
:100A84002DE9F84390F86680A8F11307002F38DDAC
:100A9400002406468946254604E00134E4B2BC42FB
:100AA40025462EDA21463046FFF762FF9042F4D104
:100AB40013354545F1DA04F11301C9B23046FFF7A5
:100AC40057FF4528E9D14D4609F8132BC5F101021A
:100AD40022445119C9B23046FFF74AFF05F8010F05
:100AE4004D45F6D1327896F866301432143B1B1B10
:100AF40022443046327086F86630FFF713FF012037
:100B040000E00020BDE8F88330B597B000F04AF962
:100B14000023CDE90B33CDE90933CDE90333CDE926
:100B240005332C4901930D930793086C2A4A40F02E
:100B340080500864096C01F080510191019902937D
:100B4400116841F44041116012680F9302F440426D
:100B5400102301210292CDE90B130822B4230224AD
:100B6400CDE91023029808940222022308A8CDE9B3
:100B740012230E94149400F06BFF00B1FEE700F012
:100B840053FC034600B1FEE70F22CDE903244FF4E2
:100B9400A0554FF4805203A805210792CDE90535ED
:100BA40000F092FC024600B1FEE70C4B0C4C1A61BB
:100BB4004FF46140C3E900400C211846C3E9022206
:100BC400C3E90512DA6101F0E1F908B917B030BDE3
:100BD400FEE700BF003802400070004034000020EF
:100BE400004800402DE9F047A0B006A8FFF794FEA6
:100BF40000BF3F4D2E6801AC33689806FCD5716880
:100C040006A8C9B2FFF7A0FE49222146FFF7C0FE9D
:100C14000028F1D04FF0FF3336493548DDF8059010
:100C2400DDF809600F2201F001FA06A8FFF774FE4F
:100C340000BFB9F1000F30D04FF000080DF1060AE3
:100C44000DF116072A6813689906FCD5516806A8A1
:100C5400C9B2FFF779FE44222146FFF711FF0028AD
:100C6400F0D0A6EB0A03022B08F1010836D9DDF80F
:100C740005303360DDF809307360DDF80D30B360A2
:100C8400DDF81130F3609DF8153033749DF816309B
:100C94007374C14506F11206D4D100BF2D682B68C8
:100CA4009B06FCD5696806A8C9B2FFF74DFE492228
:100CB4002146FFF76DFE0028F1D04FF0FF330E49B7
:100CC4000B48DDF80540102201F0B0F906A8FFF743
:100CD40023FE00BFA04720B0BDE8F0872346301BA9
:100CE400C21813F8011F1170BB42F9D1D1E700BF3C
:100CF40034000020382800084828000810B50023D4
:100D040086B0CDE90233CDE904330E4A0093136B68
:100D14000D4843F004031363136B03F004034FF40F
:100D24000054009301A9009B019400F0B7F9064810
:100D3400214600F047FB18B1FFF7E6FEFFF752FF2C
:100D440006B010BD0038024000080240DFF838D079
:100D5400FFF7D0FD0D480E490E4A002302E0D45897
:100D6400C4500433C4188C42F9D30B4A0B4C0023EF
:100D740001E013600432A242FBD301F01BFDFFF734
:100D8400BDFFFFF73FFC7047000002200000002079
:100D9400180000206C2800081800002080000020A3
:100DA400FEE7000080B500AF0E4B1B680D4A43F40C
:100DB400007313600B4B1B680A4A43F4806313608F
:100DC400084B1B68074A43F480731360032000F048
:100DD40031F90F2000F008F8FFF73AFD0023184618
:100DE40080BD00BF003C024080B582B000AF786097
:100DF400124B1A68124B1B7819464FF47A73B3FBE3
:100E0400F1F3B2FBF3F3184600F03BF90346002B71
:100E140001D001230EE07B680F2B0AD800227968E9
:100E24004FF0FF3000F011F9064A7B68136000238D
:100E340000E0012318460837BD4680BD0C000020A1
:100E4400140000201000002080B400AF064B1B7873
:100E54001A46064B1B681344044A136000BFBD4680
:100E64005DF8047B704700BF140000207C00002064
:100E740080B400AF034B1B681846BD465DF8047B85
:100E8400704700BF7C00002080B584B000AF78605C
:100E9400FFF7EEFFB8607B68FB60FB68B3F1FF3FD0
:100EA40005D00A4B1B781A46FB681344FB6000BF4D
:100EB400FFF7DEFF0246BB68D31AFA689A42F7D8F6
:100EC40000BF00BF1037BD4680BD00BF1400002026
:100ED40080B485B000AF78607B6803F00703FB60E3
:100EE4000C4BDB68BB60BA684FF6FF031340BB6072
:100EF400FB681A02BB68134343F0BF6343F4003337
:100F0400BB60044ABB68D36000BF1437BD465DF8BC
:100F1400047B704700ED00E080B400AF044BDB6855
:100F24001B0A03F007031846BD465DF8047B7047AF
:100F340000ED00E080B483B000AF03463960FB717C
:100F440097F90730002B0ADB3B68DAB20C4997F9B2
:100F540007301201D2B20B4483F800230AE03B6845
:100F6400DAB20849FB7903F00F03043B1201D2B251
:100F74000B441A7600BF0C37BD465DF8047B7047FE
:100F840000E100E000ED00E080B489B000AFF8605B
:100F9400B9607A60FB6803F00703FB61FB69C3F186
:100FA4000703042B28BF0423BB61FB690433062B0E
:100FB40002D9FB69033B00E000237B614FF0FF3261
:100FC400BB6902FA03F3DA43BB681A407B699A40AF
:100FD4004FF0FF317B6901FA03F3D9437B680B407F
:100FE400134318462437BD465DF8047B7047000060
:100FF40080B582B000AF78607B68013BB3F1807F3D
:1010040001D301230FE00A4A7B68013B53600F219F
:101014004FF0FF30FFF78EFF054B00229A60044B20
:1010240007221A60002318460837BD4680BD00BF5A
:1010340010E000E080B582B000AF78607868FFF718
:1010440047FF00BF0837BD4680BD80B586B000AFFE
:101054000346B9607A60FB7300237B61FFF75CFF92
:1010640078617A68B9687869FFF78EFF024697F964
:101074000F3011461846FFF75DFF00BF1837BD4615
:1010840080BD80B582B000AF78607868FFF7B0FFAC
:10109400034618460837BD4680BD000080B489B0B9
:1010A40000AF7860396000237B6100233B6100233B
:1010B400BB610023FB6165E10122FB6902FA03F3D2
:1010C4007B613B681B687A6913403B613A697B69C1
:1010D4009A4240F054813B685B6803F00303012BA0
:1010E40005D03B685B6803F00303022B30D17B68B7
:1010F4009B68BB61FB695B00032202FA03F3DB43D9
:10110400BA691340BB613B68DA68FB695B0002FAA9
:1011140003F3BA691343BB617B68BA699A607B685D
:101124005B68BB610122FB6902FA03F3DB43BA6922
:101134001340BB613B685B681B0903F00102FB6958
:1011440002FA03F3BA691343BB617B68BA695A6054
:101154003B685B6803F00303032B17D07B68DB68F1
:10116400BB61FB695B00032202FA03F3DB43BA6948
:101174001340BB613B689A68FB695B0002FA03F3A6
:10118400BA691343BB617B68BA69DA603B685B6820
:1011940003F00303022B23D1FB69DA087B680832CE
:1011A40053F82230BB61FB6903F007039B000F2255
:1011B40002FA03F3DB43BA691340BB613B681A6963
:1011C400FB6903F007039B0002FA03F3BA691343B4
:1011D400BB61FB69DA087B680832B96943F82210FD
:1011E4007B681B68BB61FB695B00032202FA03F3A3
:1011F400DB43BA691340BB613B685B6803F00302DD
:10120400FB695B0002FA03F3BA691343BB617B68B1
:10121400BA691A603B685B6803F44033002B00F042
:10122400AE800023FB605D4B5B6C5C4A43F48043FF
:1012340053645A4B5B6C03F48043FB60FB68584A6D
:10124400FB699B08023352F82330BB61FB6903F04E
:1012540003039B000F2202FA03F3DB43BA69134032
:10126400BB617B684F4A934225D07B684E4A9342C8
:101274001FD07B684D4A934219D07B684C4A9342F5
:1012840013D07B684B4A93420DD07B684A4A934201
:1012940007D07B68494A934201D106230CE0072317
:1012A4000AE0052308E0042306E0032304E0022304
:1012B40002E0012300E00023FA6902F00302920035
:1012C4009340BA691343BB613549FB699B080233F8
:1012D400BA6941F823203A4B9B68BB613B69DB4305
:1012E400BA691340BB613B685B6803F48013002B4D
:1012F40003D0BA693B691343BB61314ABB6993604C
:101304002F4BDB68BB613B69DB43BA691340BB61AC
:101314003B685B6803F40013002B03D0BA693B6994
:101324001343BB61264ABB69D360254B5B68BB6131
:101334003B69DB43BA691340BB613B685B6803F4F8
:101344000033002B03D0BA693B691343BB611C4AC9
:10135400BB6953601A4B1B68BB613B69DB43BA69C9
:101364001340BB613B685B6803F48033002B03D0FC
:10137400BA693B691343BB61114ABB691360FB69DA
:101384000133FB61FB690F2B7FF696AE00BF00BFF4
:101394002437BD465DF8047B704700BF0038024027
:1013A40000380140000002400004024000080240EE
:1013B400000C0240001002400014024000180240D9
:1013C400003C014080B485B000AF78600B467B8060
:1013D4007B681A697B881340002B02D00123FB73BE
:1013E40001E00023FB73FB7B18461437BD465DF810
:1013F400047B704780B483B000AF78600B467B8079
:1014040013467B707B78002B03D07A887B689A61C3
:1014140003E07B881A047B689A6100BF0C37BD46E1
:101424005DF8047B7047000080B582B000AF0023F4
:101434007B6000233B60204B1B6C1F4A43F08053AE
:1014440013641D4B1B6C03F080533B603B681B4BC8
:1014540001221A60FFF70CFD786009E0FFF708FD30
:1014640002467B68D31AB3F57A7F01D903231FE0C0
:10147400134B5B6803F48033B3F5803FEED1114B1B
:1014840001221A60FFF7F4FC786009E0FFF7F0FC32
:1014940002467B68D31AB3F57A7F01D9032307E0A8
:1014A400074B5B6803F40033B3F5003FEED1002330
:1014B40018460837BD4680BD0038024040000E4241
:1014C4000070004044000E4280B584B000AF7860E4
:1014D40039607B68002B01D10123CCE0684B1B6889
:1014E40003F00F033A689A420CD9654B3A68D2B2BA
:1014F4001A70634B1B6803F00F033A689A4201D0D9
:101504000123B8E07B681B6803F00203002B20D0A2
:101514007B681B6803F00403002B05D0594B9B68C0
:10152400584A43F4E05393607B681B6803F0080354
:10153400002B05D0534B9B68524A43F4604393609D
:10154400504B9B6823F0F0027B689B684D49134322
:101554008B607B681B6803F00103002B44D07B681D
:101564005B68012B07D1474B1B6803F40033002B46
:1015740019D101237FE07B685B68022B03D07B6871
:101584005B68032B07D13F4B1B6803F00073002BF0
:1015940009D101236FE03B4B1B6803F00203002BCE
:1015A40001D1012367E0374B9B6823F003027B687A
:1015B4005B68344913438B60FFF75AFCF8600AE018
:1015C400FFF756FC0246FB68D31A41F28832934275
:1015D40001D903234FE02B4B9B6803F00C027B687B
:1015E4005B689B009A42EBD1254B1B6803F00F0309
:1015F4003A689A420CD2224B3A68D2B21A70204B03
:101604001B6803F00F033A689A4201D0012332E0C9
:101614007B681B6803F00403002B08D0194B9B68FC
:1016240023F4E0527B68DB68164913438B607B68C4
:101634001B6803F00803002B09D0124B9B6823F4AA
:1016440060427B681B69DB000E4913438B6000F02A
:1016540055F802460B4B9B681B0903F00F030A491C
:10166400CB5C22FA03F3094A1360094B1B68184642
:10167400FFF7BAFB002318461037BD4680BD00BFF4
:10168400003C024000380240202800080C000020E2
:101694001000002080B400AF034B1B681846BD4601
:1016A4005DF8047B704700BF0C00002080B500AFDC
:1016B400FFF7F0FF0246054B9B689B0A03F0070304
:1016C4000349CB5C22FA03F3184680BD003802407C
:1016D4003028000880B500AFFFF7DCFF0246054B59
:1016E4009B685B0B03F007030349CB5C22FA03F30B
:1016F400184680BD00380240302800082DE9B04F5C
:10170400A6B000AF0023C7F88C300023C7F894308C
:101714000023C7F888300023C7F884300023C7F8B3
:101724009030C84B9B6803F00C030C2B00F27E81B5
:1017340001A252F823F000BF71170008311A000803
:10174400311A0008311A000879170008311A000804
:10175400311A0008311A000881170008311A0008EC
:10176400311A0008311A0008EB180008B64BC7F804
:1017740090305FE1B54BC7F890305BE1B14B5B68EB
:1017840003F03F03C7F88C30AE4B5B6803F480036F
:10179400002B31D0AB4B5B689B090022BB66FA6619
:1017A400BB6EC3F308033B6600237B66A74BD7E9F4
:1017B40018452A4603FB02F20023214601FB03F3EA
:1017C4001344A24A2146A1FB0212FA670A46BA67E9
:1017D400FA6F1344FB67D7F88C300022BB65FA65B7
:1017E400D7E91623D7E91E01FEF70AFD02460B4688
:1017F4001346C7F8943064E0924B5B689B0900225F
:101804003B657A653B6DC3F30803BB640023FB644B
:10181400D7E9124522462B464FF000004FF0000155
:10182400590141EAD261500102460B462146511A40
:101834003961294663EB01037B614FF000024FF0ED
:101844000003D7E904AB59468B01514643EA91633F
:1018540051468A015146B2EB0108594663EB01092E
:101864004FF000024FF000034FEAC90343EA5873F4
:101874004FEAC80290469946234618EB0303BB601F
:101884002B4649EB0303FB604FF000024FF00003CB
:10189400D7E9024529468B02214643EA9153214662
:1018A4008A0210461946D7F88C3000223B647A64C9
:1018B400D7E91023FEF7A4FC02460B461346C7F8EB
:1018C4009430604B5B681B0C03F0030301335B0033
:1018D400C7F88830D7F89420D7F88830B2FBF3F3F0
:1018E400C7F89030A6E0574B5B6803F03F03C7F896
:1018F4008C30544B5B6803F48003002B2AD0514B8B
:101904005B689B090022BB63FA63BB6BC3F30800EB
:1019140000214E4B03FB01F2002300FB03F31344AD
:101924004A4AA0FB02127A670A463A677A6F13445E
:101934007B67D7F88C3000223B637A63D7E90C23AA
:10194400D7E91C01FEF75CFC02460B461346C7F8B8
:1019540094305BE03B4B5B689B090022BB62FA62FC
:10196400BB6AC3F308033B6200237B62D7E908899F
:1019740042464B464FF000004FF00001590141EA46
:10198400D261500102460B464146B2EB010A494678
:1019940063EB010B4FF000024FF000034FEA8B138F
:1019A40043EA9A634FEA8A12B2EB0A0463EB0B052B
:1019B4004FF000024FF00003EB0043EA5473E200DF
:1019C40014461D464346E3183B604B4645EB030370
:1019D4007B604FF000024FF00003D7E90045294631
:1019E4008B02214643EA915321468A021046194646
:1019F400D7F88C300022BB61FA61D7E90623FEF7E1
:101A0400FFFB02460B461346C7F894300D4B5B6848
:101A14001B0F03F00703C7F88430D7F89420D7F8D6
:101A24008430B2FBF3F3C7F8903003E0064BC7F8F9
:101A3400903000BFD7F8903018469837BD46BDE8BF
:101A4400B08F00BF003802400024F40040787D01CC
:101A540080B586B000AF78607B68002B01D101238C
:101A64008DE27B681B6803F00103002B00F0838088
:101A7400944B9B6803F00C03042B19D0914B9B6887
:101A840003F00C03082B06D18E4B5B6803F4800330
:101A9400B3F5800F0CD08B4B9B6803F00C030C2B1D
:101AA40012D1884B5B6803F48003B3F5800F0BD12C
:101AB400844B1B6803F40033002B5BD07B685B68AA
:101AC400002B57D101235AE27B685B68B3F5803F52
:101AD40006D17C4B1B687B4A43F4803313601DE0C2
:101AE4007B685B68B3F5A02F0CD1764B1B68754AF5
:101AF40043F480231360734B1B68724A43F48033AE
:101B040013600BE06F4B1B686E4A23F48033136041
:101B14006C4B1B686B4A23F4802313607B685B68FF
:101B2400002B13D0FFF7A4F9386108E0FFF7A0F900
:101B340002463B69D31A642B01D903231FE2614B8C
:101B44001B6803F40033002BF0D014E0FFF790F986
:101B5400386108E0FFF78CF902463B69D31A642B1D
:101B640001D903230BE2574B1B6803F40033002B0A
:101B7400F0D100E000BF7B681B6803F00203002B78
:101B84006FD0504B9B6803F00C03002B17D04D4BC8
:101B94009B6803F00C03082B05D14A4B5B6803F4E4
:101BA4008003002B0BD0474B9B6803F00C030C2BDA
:101BB4001CD1444B5B6803F48003002B16D1414BCA
:101BC4001B6803F00203002B05D07B68DB68012B44
:101BD40001D00123D3E13B4B1B6823F0F8027B685F
:101BE4001B69DB00374913430B603AE07B68DB6811
:101BF400002B20D0344B01221A60FFF739F93861E9
:101C040008E0FFF735F902463B69D31A022B01D9E4
:101C14000323B4E12B4B1B6803F00203002BF0D029
:101C2400284B1B6823F0F8027B681B69DB002549FD
:101C340013430B6015E0244B00221A60FFF718F9D8
:101C4400386108E0FFF714F902463B69D31A022B06
:101C540001D9032393E11B4B1B6803F00203002B00
:101C6400F0D17B681B6803F00803002B36D07B6837
:101C74005B69002B16D0154B01221A60FFF7F8F8A8
:101C8400386108E0FFF7F4F802463B69D31A022BE7
:101C940001D9032373E10B4B5B6F03F00203002BA9
:101CA400F0D01BE0094B00221A60FFF7E1F838611D
:101CB4000EE0FFF7DDF802463B69D31A022B07D981
:101CC40003235CE10038024000004742800E474293
:101CD4008A4B5B6F03F00203002BEAD17B681B681D
:101CE40003F00403002B00F097800023FB75834B63
:101CF4001B6C03F08053002B0FD10023BB607F4B80
:101D04001B6C7E4A43F0805313647C4B1B6C03F0C2
:101D14008053BB60BB680123FB75794B1B6803F4DC
:101D24008073002B18D1764B1B68754A43F480737B
:101D34001360FFF79DF8386108E0FFF799F8024651
:101D44003B69D31A022B01D9032318E16C4B1B689E
:101D540003F48073002BF0D07B689B68012B06D1C1
:101D6400664B1B6F654A43F0010313671CE07B68F5
:101D74009B68052B0CD1614B1B6F604A43F0040335
:101D840013675E4B1B6F5D4A43F0010313670BE05F
:101D94005A4B1B6F594A23F001031367574B1B6FB0
:101DA400564A23F0040313677B689B68002B15D005
:101DB400FFF75EF838610AE0FFF75AF802463B691C
:101DC400D31A41F28832934201D90323D7E04B4B13
:101DD4001B6F03F00203002BEED014E0FFF748F86A
:101DE40038610AE0FFF744F802463B69D31A41F22E
:101DF4008832934201D90323C1E0404B1B6F03F0A7
:101E04000203002BEED1FB7D012B05D13B4B1B6C58
:101E14003A4A23F0805313647B689B69002B00F0DB
:101E2400AD80364B9B6803F00C03082B60D07B68B5
:101E34009B69022B45D1334B00221A60FFF718F837
:101E4400386108E0FFF714F802463B69D31A022B05
:101E540001D9032393E0294B1B6803F00073002B83
:101E6400F0D17B68DA697B681B6A1A437B685B6A1A
:101E74009B011A437B689B6A5B08013B1B041A4362
:101E84007B68DB6A1B061A437B681B6B1B071B49B9
:101E940013434B601B4B01221A60FEF7E9FF3861C4
:101EA40008E0FEF7E5FF02463B69D31A022B01D98D
:101EB400032364E0114B1B6803F00073002BF0D084
:101EC4005CE0104B00221A60FEF7D2FF386108E094
:101ED400FEF7CEFF02463B69D31A022B01D9032336
:101EE4004DE0064B1B6803F00073002BF0D145E076
:101EF4007B689B69012B07D1012340E00038024035
:101F040000700040600047421F4B5B68FB607B68C9
:101F14009B69012B30D0FB6803F480027B68DB698A
:101F24009A4229D1FB6803F03F027B681B6A9A42FC
:101F340022D1FA6847F6C07313407A68526A920154
:101F4400934219D1FB6803F440327B689B6A5B08B7
:101F5400013B1B049A420FD1FB6803F070627B685B
:101F6400DB6A1B069A4207D1FB6803F0E0427B68F8
:101F74001B6B1B079A4201D0012300E00023184683
:101F84001837BD4680BD00BF0038024080B582B01E
:101F940000AF78607B68002B01D1012342E07B68AD
:101FA40093F84130DBB2002B06D17B68002283F822
:101FB40040207868FEF7FAFB7B68242283F84120EE
:101FC4007B681B68DA687B681B6822F40052DA605D
:101FD400786800F073F97B681B681A697B681B6872
:101FE40022F490421A617B681B685A697B681B68FB
:101FF40022F02A025A617B681B68DA687B681B68D6
:1020040042F40052DA607B6800225A647B68202222
:1020140083F841207B68202283F842207B680022D9
:102024005A63002318460837BD4680BD80B58AB080
:1020340002AFF860B9603B601346FB8000237B610C
:10204400FB6893F84130DBB2202B75D1BB68002BC1
:1020540002D0FB88002B01D101236EE0FB68002233
:102064005A64FB68212283F84120FEF701FF78615E
:10207400FB68FA889A84FB68FA88DA84FB689B68B0
:10208400B3F5805F08D1FB681B69002B04D10023E2
:10209400FB61BB68BB6103E0BB68FB610023BB6100
:1020A4002EE03B6800937B6900228021F86800F0F1
:1020B40048F80346002B05D0FB68202283F8412012
:1020C40003233AE0FB69002B0BD1BB691B881A463A
:1020D400FB681B68C2F308025A60BB690233BB6128
:1020E40007E0FB691A78FB681B685A60FB690133D7
:1020F400FB61FB68DB8C9BB2013B9AB2FB68DA8420
:10210400FB68DB8C9BB2002BCBD13B6800937B69D3
:1021140000224021F86800F014F80346002B05D093
:10212400FB68202283F84120032306E0FB68202279
:1021340083F84120002300E0022318462037BD46DF
:1021440080BD80B586B000AFF860B9603B601346CF
:10215400FB713BE03B6AB3F1FF3F37D0FEF788FEEB
:1021640002463B68D31A3A6A9A4202D33B6A002B6E
:1021740001D103233AE0FB681B68DB6803F0040326
:10218400002B23D0BB68802B20D0BB68402B1DD0F4
:10219400FB681B681B6803F00803082B16D1002397
:1021A4007B61FB681B681B687B61FB681B685B6861
:1021B4007B617B69F86800F01DF8FB6808225A64AB
:1021C400FB68002283F8402001230FE0FB681B68B2
:1021D4001A68BB681340BA689A420CBF01230023F3
:1021E400DBB21A46FB799A42B4D00023184618375A
:1021F400BD4680BD80B495B000AF78607B681B6835
:102204000C337B637B6B53E8003F3B633B6B23F4F2
:102214009073FB647B681B680C33FA6C3A64FB6351
:10222400F96B3A6C41E80023BB63BB6B002BE5D12F
:102234007B681B6814333B623B6A53E8003FFB61D5
:10224400FB6923F00103BB647B681B681433BA6C1D
:10225400FA62BB62B96AFA6A41E800237B627B6A6C
:10226400002BE5D17B681B6B012B19D17B681B68A4
:102274000C33FB60FB6853E8003FBB60BB6823F092
:1022840010037B647B681B680C337A6CBA617B61D6
:102294007969BA6941E800233B613B69002BE5D1C8
:1022A4007B68202283F842207B6800221A6300BFE7
:1022B4005437BD465DF8047B704700002DE9B04FEC
:1022C400C0B000AFC7F8F400D7F8F4301B681B693E
:1022D40023F44050D7F8F430D968D7F8F4301A68AA
:1022E40040EA01031361D7F8F4309A68D7F8F43060
:1022F4001B691A43D7F8F4305B691A43D7F8F430F2
:10230400DB691343C7F8F830D7F8F4301B68DB688F
:1023140023F4164121F00C01D7F8F4301A68D7F8E9
:10232400F8300B43D360D7F8F4301B685B6923F4AF
:102334004070D7F8F4309969D7F8F4301A6840EA55
:1023440001035361D7F8F4301A688F4B9A4205D0D1
:10235400D7F8F4301A688D4B9A4204D1FFF7BAF9D2
:10236400C7F8FC0003E0FFF7A1F9C7F8FC00D7F8B1
:10237400F430DB69B3F5004F40F00C81D7F8FC3042
:102384000022C7F8E830C7F8EC20D7E93A452246DE
:102394002B469118B9655B41FB65D7E916232146A5
:1023A40012EB0108294643EB01094FF000024FF0FC
:1023B40000034FEAC90343EA58734FEAC802904640
:1023C4009946234618EB0303C7F8E0302B4649EB44
:1023D4000303C7F8E430D7F8F4305B680022C7F889
:1023E400D830C7F8DC20D7E936120B46DB183B653A
:1023F400134642EB03037B65D7E91423D7E938017D
:10240400FDF7FEFE02460B46614BA3FB02235B096C
:102414001C01D7F8FC300022C7F8D030C7F8D4200C
:10242400D7E9348942464B469118B9645B41FB6451
:10243400D7E91223414612EB010A494643EB010B4B
:102444004FF000024FF000034FEACB0343EA5A7304
:102454004FEACA0292469B4643461AEB0303C7F867
:10246400C8304B464BEB0303C7F8CC30D7F8F430F5
:102474005B680022C7F8C030C7F8C420D7E930121F
:102484000B46DB183B64134642EB03037B64D7E93A
:102494001023D7E93201FDF7B3FE02460B4611467D
:1024A4003B4BA3FB01235B09642202FB03F3CB1A1E
:1024B400DB0003F13202364BA3FB02235B095B0012
:1024C40003F4F8731C44D7F8FC300022C7F8B83082
:1024D400C7F8BC20D7E92E8942464B469118B96308
:1024E4005B41FB63D7E90E234146511839634946E2
:1024F4004B417B634FF000024FF00003D7E90CAB74
:102504005946CB00514643EA51735146CA0010461E
:102514001946034642469B18C7F8B0304B460A4654
:1025240042EB0303C7F8B430D7F8F4305B680022F9
:10253400C7F8A830C7F8AC20D7E92A120B46DB1835
:10254400BB62134642EB0303FB62D7E90A23D7E9D4
:102554002C01FDF755FE02460B460D4BA3FB02135F
:102564005B09642101FB03F3D31ADB003233084A0D
:10257400A2FB03235B0903F00702D7F8F4301B68BE
:1025840022449A6006E100BF00100140001401409B
:102594001F85EB51D7F8FC300022C7F8A030C7F8EC
:1025A400A420D7E9288942464B46911839625B41F9
:1025B4007B62D7E9082341465418494643EB010599
:1025C4004FF000024FF00003EB0043EA5473E200C3
:1025D40014461D464346E318C7F898304B4645EB6E
:1025E4000303C7F89C30D7F8F4305B680022C7F8BF
:1025F4009030C7F894204FF000024FF00003D7E961
:10260400244529468B00214643EA917321468A00DA
:10261400D7E92601FDF7F4FD02460B46604BA3FB08
:1026240002235B091C01D7F8FC300022C7F888306C
:10263400C7F88C20D7E9228942464B469118B961E4
:102644005B41FB61D7E9062341465118396149468C
:102654004B417B614FF000024FF00003D7E904AB1C
:102664005946CB00514643EA51735146CA001046BD
:102674001946034642469B18C7F880304B460A4623
:1026840042EB0303C7F88430D7F8F4305B680022C8
:10269400BB67FA674FF000024FF00003D7E91E89C9
:1026A40049468B00414643EA917341468A00D7E983
:1026B4002001FDF7A5FD02460B461146384BA3FB4E
:1026C40001235B09642202FB03F3CB1A1B0132339F
:1026D400334AA2FB03235B0903F0F0031C44D7F83D
:1026E400FC3000223B677A67D7E91C8942464B4697
:1026F4009118B9605B41FB60D7E902234146511848
:10270400396049464B417B604FF000024FF00003B3
:10271400D7E900AB5946CB00514643EA51735146C1
:10272400CA0010461946034642469B18BB664B46F0
:102734000A4642EB0303FB66D7F8F4305B680022D9
:102744003B667A664FF000024FF00003D7E9188920
:1027540049468B00414643EA917341468A00D7E9D2
:102764001A01FDF74DFD02460B460D4BA3FB021368
:102774005B09642101FB03F3D31A1B013233084ABA
:10278400A2FB03235B0903F00F02D7F8F4301B68A4
:1027940022449A6000BF07F58077BD46BDE8B08F3C
:1027A4001F85EB5102440346934200D1704703F85E
:1027B400011BF9E770B50D4D0D4C641BA4100026E8
:1027C400A64209D10B4D0C4C00F018F8641BA41060
:1027D4000026A64205D170BD55F8043B9847013642
:1027E400EEE755F8043B98470136F2E76428000801
:1027F400642800086428000868280008F8B500BFA9
:10280400F8BC08BC9E467047F8B500BFF8BC08BCCD
:042814009E46704725
:1028180001008000004000000000000000000000EF
:10282800010203040607080900000000010203046E
:10283800496E69742052656365697665640D0A009E
:102848004272616E6368696E6720746F2052414DF1
:042858000D0A000065
:08285C00D8D9FF7F0100000044
:04286400E90100087E
:04286800C50100089E
:10286C000004024000040240000402400024F40072
:08287C00100000000100000043
:0400000508000D5191
:00000001FF
